:100000000C9472000C9494000C9494000C94940042
:100010000C9494000C9494000C9494000C94940010
:100020000C9494000C9494000C9494000C94940000
:100030000C9494000C9494000C9494000C949400F0
:100040000C9494000C9424040C9494000C9494004C
:100050000C9494000C9494000C9494000C949400D0
:100060000C9494000C9494000C9494000C949400C0
:100070000C9494000C9494000C9494000C949400B0
:100080000C9494000C9494000C9494000C949400A0
:100090000C9494000C9494000C9494000C94940090
:1000A0000C9494000C9494000C9494000C94940080
:1000B0000C9494000C9494000C9494000C94940070
:1000C0000C9494000C9494000C9494000C94940060
:1000D0000C9494000C9494000C9494000C94940050
:1000E0000C94940011241FBECFEFD1E2DEBFCDBF30
:1000F00000E00CBF13E0A0E0B2E0E6E4FDE000E0C9
:100100000BBF02C007900D92A03BB107D9F71BBEF1
:1001100013E0A0EBB3E001C01D92AB3BB107E1F7E8
:100120000E94AC000C94A1060C940000CF93DF93C6
:10013000CDB7DEB78091B0039091B103DF91CF913D
:100140000895CF93DF93CDB7DEB70E9475010E946B
:100150005404DF91CF910895CF93DF930F920F92C4
:10016000CDB7DEB70E94A1000E9496009A838983D2
:1001700089819A81FC01808191810696FC01208110
:10018000318189819A816DE070E0F9011995898149
:100190009A81FC01808191810496FC01208131814A
:1001A00089819A816CE170E0F901199589819A81C0
:1001B000FC01808191810696FC0120813181898139
:1001C0009A8168E070E0F901199589819A81FC01B2
:1001D000808191810A96FC012081318189819A81F7
:1001E00067E070E0F9011995882381F089819A818F
:1001F000FC01808191810496FC01208131818981FB
:100200009A816DE070E0F9011995DFCF89819A81BB
:10021000FC01808191810696FC01208131818981D8
:100220009A816DE070E0F9011995CFCFCF93DF93FC
:100230000F920F92CDB7DEB79A83898389819A8115
:1002400024E833E0FC013183208382E090E0817078
:100250009070882321F089819A810E94FD030F907C
:100260000F90DF91CF910895CF93DF930F920F926C
:10027000CDB7DEB79A83898389819A810E9416015E
:1002800089819A810E94FD030F900F90DF91CF9199
:100290000895CF93DF930F920F92CDB7DEB79A8375
:1002A000898389819A8124E833E0FC0131832083AA
:1002B0000F900F90DF91CF910895CF93DF930F921E
:1002C0000F92CDB7DEB79A83898389819A810E9484
:1002D000490189819A8124E933E0FC01318320833B
:1002E0000F900F90DF91CF9108950F931F93CF93AD
:1002F000DF93CDB7DEB782E090E00E94C8038C01A7
:10030000F80111821082C8010E945D011093B103AF
:100310000093B003DF91CF911F910F910895CF9378
:10032000DF93CDB7DEB78091B0039091B103009712
:1003300089F08091B0039091B103FC01808191819B
:100340000296FC01208131818091B0039091B1032C
:10035000F90119951092B1031092B003DF91CF917A
:100360000895CF93DF930F920F92CDB7DEB79A83A4
:10037000898389819A8124E833E0FC0131832083D9
:1003800080E090E081709070882321F089819A81CB
:100390000E94FD030F900F90DF91CF910895CF93AE
:1003A000DF930F920F92CDB7DEB79A83898389814D
:1003B0009A8124E833E0FC013183208382E090E0DD
:1003C00081709070882321F089819A810E94FD03B9
:1003D0000F900F90DF91CF910895CF93DF930F92FD
:1003E0000F92CDB7DEB79A83898389819A810E9463
:1003F000160189819A810E94FD030F900F90DF9171
:10040000CF910895CF93DF930F920F92CDB7DEB7C0
:100410009A83898389819A8124E933E0FC013183BD
:10042000208389819A810E94B10182E090E08170ED
:100430009070882321F089819A810E94FD030F909A
:100440000F90DF91CF910895CF93DF930F920F928A
:10045000CDB7DEB79A83898389819A810E9402028F
:1004600089819A810E94FD030F900F90DF91CF91B7
:100470000895CF93DF9300D00F92CDB7DEB79A8364
:1004800089837C836B838B819C81880F991F88551E
:100490009D4FFC01808191812B813C81220F331F74
:1004A00028553D4FF90120813181F9012081622FCA
:1004B0002B813C812A5F3D4FF9012081422F50E082
:1004C00021E030E002C0220F331F4A95E2F7262BCD
:1004D000FC0120838B819C81880F991F845C9D4F38
:1004E000FC01808191812B813C81220F331F245C90
:1004F0003D4FF90120813181F9012081622F2B814B
:100500003C812A5F3D4FF9012081422F50E021E0DC
:1005100030E0042E02C0220F331F0A94E2F7262B8C
:10052000FC0120830F900F900F900F90DF91CF91DF
:100530000895CF93DF9300D00F92CDB7DEB79A83A3
:1005400089837C836B838B819C81880F991F88555D
:100550009D4FFC01808191812B813C81220F331FB3
:1005600028553D4FF90120813181F9012081622F09
:100570002B813C812A5F3D4FF9012081422F50E0C1
:1005800021E030E002C0220F331F4A95E2F7262B0C
:10059000FC0120838B819C81880F991F845C9D4F77
:1005A000FC01808191812B813C81220F331F245CCF
:1005B0003D4FF90120813181F9012081622F2B818A
:1005C0003C812A5F3D4FF9012081422F50E021E01C
:1005D00030E0042E02C0220F331F0A94E2F7209568
:1005E0002623FC0120830F900F900F900F90DF9136
:1005F000CF910895CF93DF9300D00F92CDB7DEB7A0
:100600009A8389837C836B838B819C81880F991F5C
:1006100088559D4FFC01808191812B813C81220F67
:10062000331F28553D4FF90120813181F901208187
:10063000622F2B813C812A5F3D4FF9012081422F9F
:1006400050E021E030E002C0220F331F4A95E2F76C
:10065000262BFC0120838B819C81880F991F845C51
:100660009D4FFC01808191812B813C81220F331FA2
:10067000245C3D4FF90120813181F9012081622FF5
:100680002B813C812A5F3D4FF9012081422F50E0B0
:1006900021E030E0042E02C0220F331F0A94E2F75B
:1006A0002627FC0120830F900F900F900F90DF9171
:1006B000CF910895CF93DF9300D00F92CDB7DEB7DF
:1006C0009A8389837C836B838B819C81880F991F9C
:1006D00088559D4FFC01808191812B813C81220FA7
:1006E000331F28553D4FF90120813181F9012081C7
:1006F000622F2B813C812A5F3D4FF9012081422FDF
:1007000050E021E030E0042E02C0220F331F0A9493
:10071000E2F720952623FC0120838B819C81880FA2
:10072000991F8C5E9C4FFC0180819181FC0180812E
:10073000882F90E02B813C812A5F3D4FF901208179
:10074000222F30E0022E02C0959587950A94E2F799
:10075000817090708823A1F08B819C818A5F9D4F6E
:10076000FC018081282F30E081E090E0022E02C061
:10077000880F991F0A94E2F7009711F081E001C0F9
:1007800080E00F900F900F900F90DF91CF91089520
:10079000CF93DF930F920F92CDB7DEB79A83898301
:1007A00089819A810E9472050F900F90DF91CF91FD
:1007B0000895CF93DF930F920F92CDB7DEB79A8350
:1007C000898389819A810E9472050F900F90DF9131
:1007D000CF910895CF93DF9300D00F92CDB7DEB7BE
:1007E0009A8389837C836B838B819C810F900F908C
:1007F0000F900F90DF91CF910895CF93DF930F92D9
:100800000F92CDB7DEB79A83898389819A810E943E
:1008100008060F900F90DF91CF910895CF93DF934B
:100820000F920F92CDB7DEB79A83898389819A811F
:100830000E9408060F900F90DF91CF910895CF93FB
:10084000DF93CDB7DEB7FFCF1F920F920FB60F9297
:1008500000905B000F9211242F933F934F935F936F
:100860006F937F938F939F93AF93BF93EF93FF9378
:10087000CF93DF93CDB7DEB70E941805DF91CF91FC
:10088000FF91EF91BF91AF919F918F917F916F9168
:100890005F914F913F912F910F9000925B000F90CD
:1008A0000FBE0F901F901895CF93DF93CDB7DEB793
:1008B0000E94320588E890E020ED37E0FC013183AA
:1008C000208381E890E02AE0FC0120838FE690E01D
:1008D00022E0FC0120830E943F05DF91CF91089523
:1008E000CF93DF9300D00F92CDB7DEB79C838B837D
:1008F0000E94B8049A83898300000E94B8049C0176
:1009000089819A81281B390B41E08B819C812817B2
:10091000390708F040E0442381F70F900F900F90C3
:100920000F90DF91CF910895CF93DF9300D00F9276
:10093000CDB7DEB79C838B830E94D2049A838983D0
:1009400000000E94D2049C0189819A81281B390BE6
:1009500041E08B819C812817390708F040E044234F
:1009600081F70F900F900F900F90DF91CF91089526
:10097000CF93DF930F920F92CDB7DEB70E9432056F
:1009800084E890E0FC01808191819A8389830E94B0
:100990003F0589819A81969587950F900F90DF91F9
:1009A000CF910895CF93DF930F920F92CDB7DEB71B
:1009B0000E9432058091B2039091B303A091B403D9
:1009C000B091B5039A8389830E943F0589819A81FA
:1009D0000F900F90DF91CF910895CF93DF9300D0C8
:1009E0000F92CDB7DEB70E9432058091B20390918D
:1009F000B303A091B403B091B50389839A83AB8309
:100A0000BC830E943F0589819A81AB81BC8128EE1D
:100A100033E040E050E0BC01CD010E945005DA0116
:100A2000C9010F900F900F900F90DF91CF91089513
:100A3000CF93DF93CDB7DEB78091B2039091B3032C
:100A4000A091B403B091B5030196A11DB11D80938F
:100A5000B2039093B303A093B403B093B503DF91B3
:100A6000CF910895CF93DF93CDB7DEB7F8948091FF
:100A7000B6038F5F8093B603DF91CF910895CF9334
:100A8000DF93CDB7DEB78091B60381508093B60374
:100A90008091B603882309F47894DF91CF9108956B
:100AA000A1E21A2EAA1BBB1BFD010DC0AA1FBB1F72
:100AB000EE1FFF1FA217B307E407F50720F0A21BE4
:100AC000B30BE40BF50B661F771F881F991F1A9451
:100AD00069F760957095809590959B01AC01BD017B
:100AE000CF010895CF93DF93AC018230910510F4CC
:100AF00042E050E0E091B903F091BA0320E030E029
:100B0000A0E0B0E024C08081918184179507D0F0E7
:100B10008417950771F482819381109729F01396B9
:100B20009C938E9312972CC09093BA038093B90331
:100B300027C02115310519F08217930718F49C017D
:100B4000BD01EF0192818381DF01E92FF82F3097FA
:100B5000D1F621153105F9F0C901841B950B8430BC
:100B6000910580F48A819B816115710521F0FB015B
:100B70009383828304C09093BA038093B903FE01E8
:100B8000329642C0FE01E80FF91F4193519302973C
:100B90009983888339C08091B7039091B8030097F7
:100BA00041F480910202909103029093B8038093E4
:100BB000B70320910002309101022115310541F463
:100BC0002DB73EB78091040290910502281B390B86
:100BD000E091B703F091B803E217F30798F42E1BE6
:100BE0003F0B2417350770F0CA0102962817390702
:100BF00048F08E0F9F1F9093B8038093B7034193E3
:100C0000519302C0E0E0F0E0CF01DF91CF91089571
:100C10000F931F93CF93DF939C01009709F48CC02F
:100C2000DC01129713961C921E9212976091B903E1
:100C30007091BA036115710589F48D919C9111979A
:100C4000820F931F2091B7033091B80328173907FB
:100C500069F5B093B803A093B7036EC0FB0140E001
:100C600050E001C0FC01EA17FB0730F48281938158
:100C7000AF010097B9F71FC0E9012297FB83EA8310
:100C800008811981C901800F911F8E179F0759F4A0
:100C900080819181800F911F029699838883828140
:100CA00093819B838A834115510529F4B093BA033C
:100CB000A093B90341C0FA01B383A283C191D1913A
:100CC000EC0FFD1FAE17BF0781F4F90192918291DD
:100CD0008C0F9D1F0296DA0111969C938E93828150
:100CE000938113969C938E931297E0E0F0E002C0FC
:100CF000FB01BC01DB0112968D919C91139700972B
:100D0000B9F7CB0102962D913C911197820F931F59
:100D10002091B7033091B8032817390769F4309749
:100D200029F41092BA031092B90302C013821282FE
:100D30007093B8036093B703DF91CF911F910F9128
:060D40000895F894FFCFB6
:100D46000000BB032000000104050503030405069B
:100D56000405060701000100030201000001020369
:100D66000405060707060504030201000702010041
:100D76000706050403020100030201002E002E00EF
:100D86002E002E0034002E00020102010201020193
:100D960025002500250025000501050102010201A7
:100DA6002B002B002B002B00220022002200220009
:100DB6002200220022002200280028002800280005
:100DC60028002800280028002B00340034003400B6
:100DD6000B010B010B010B010B010B010B010B01AD
:100DE60025002500250025002D002D002D002D00B5
:100DF60033002D000101010101010101240024003D
:100E06002400240004010401010101012A002A0032
:100E16002A002A00210021002100210021002100B2
:100E26002100210027002700270027002700270090
:100E3600270027002A003300330033000A010A0185
:100E46000A010A010A010A010A010A012400240012
:100E5600240024002C002C002C002C0032002C0036
:100E660000010001000100012300230023002300EC
:100E760003010301000100012900290029002900BE
:100E8600200020002000200020002000200020005C
:100E9600260026002600260026002600260026001C
:100EA6002900320032003200090109010901090155
:100EB6000901090109010901230023002300230078
:100EC60000000000160134011F041F041F041F0444
:100ED600000000000202240239029902FA025A03B3
:100EE60000000000160134011F041F041F041F0424
:00000001FF
